:100000000C9403010C942E010C942E010C942E01DF
:100010000C942E010C942E010C942E010C942E01A4
:100020000C942E010C942E010C942E010C942E0194
:100030000C942E010C942E010C942E010C942E0184
:100040000C942E010C942E010C942E010C942E0174
:100050000C942E010C942E010C942E010C943D3026
:100060000C942E010C9411330C942E010C942E013F
:100070000C942E010C942E010C942E010C942E0144
:100080000C942E010C942E010C942E010C942E0134
:100090000C9452330C942E010C942E010C942E01CE
:1000A0000C942E010C942E010C942E010C942E0114
:1000B0000C942E010C942E010C942E010C942E0104
:1000C0000C942E010C942E010C942E010C9493335D
:1000D0000C942E010C942E010C94D4330C942E010C
:1000E0000C942E0100002100240027002A002D007E
:1000F0003000330001010000040107010A01000083
:100100002200250028002B002E00310034000201BF
:100110000000050108010B0100002000230026005B
:1001200029002C002F00320000010000030106010D
:10013000090105050505070508080808020202026D
:100140000A0A080804040404010101010101010173
:100150000303030303030303040707070C0C0C0C3E
:100160000C0C0C0C02020202060606060606060627
:100170000B0B0B0B0B0B0B0B0102102020080810B4
:100180002040102040800201020108040201010207
:1001900004081020408080402010080402018004E0
:1001A000020180402010080402010804020101023B
:1001B0000408102040800102040810204080000044
:1001C000090A02080B0C0D070603040100000000D9
:1001D000000000000000000000000000000000001F
:1001E00000000000000000000000100F0E000000E2
:1001F00000000000000000000000000000000000FF
:10020000000000002D3511241FBECFEFD1E2DEBF6C
:10021000CDBF12E0A0E0B2E0E0E8FFE600E00BBFF7
:1002200002C007900D92A837B107D9F71BBE14E0A2
:10023000A8E7B2E001C01D92AD3DB107E1F712E0C1
:10024000C6E0D2E004C02297FE010E94BA37C43053
:10025000D107C9F70E9436300C94BE370C940000C9
:10026000AF92BF92CF92DF92EF92FF920F931F93C4
:100270006C015B017A0101E914E0C80160E072E001
:100280000E943436C801B7010E941D37C80168E0DA
:1002900072E00E943436C801B6010E941D37C801C1
:1002A0006EE072E00E943436C801B5010E94253725
:1002B0001F910F91FF90EF90DF90CF90BF90AF9084
:1002C0000895CF92DF92EF92FF920F931F93CF93F7
:1002D000DF9382E06EEF70E00E941E316C98809197
:1002E00090008F7D80939000749A6B9A809190001B
:1002F0008F7780939000739861E070E080E090E0E9
:100300000E949330809190008F7D80939000649B39
:1003100008C082E090E065E070E041E050E00E94BB
:10032000300185E06EEF70E00E941E316C98809184
:1003300090008F7D80939000749A6B9A80919000CA
:100340008F7780939000739861E070E080E090E098
:100350000E949330809190008F7D80939000649BE9
:1003600008C082E090E065E070E041E050E00E946B
:1003700030016C98809190008F7D80939000749AEA
:100380006B9A809190008F7780939000739861E0D2
:1003900070E080E090E00E949330809190008F7D2B
:1003A00080939000649B08C082E090E065E070E07C
:1003B00041E050E00E943001809190008F7D809359
:1003C00090006C98749A809190008F778093900041
:1003D0006B9A739861E070E080E090E00E94933047
:1003E000649B08C082E090E065E070E041E050E08E
:1003F0000E94300182E06EEF70E00E941E31809119
:1004000090008F7D809390006C98749A80919000FA
:100410008F77809390006B9A739861E070E080E032
:1004200090E00E949330649B08C082E090E065E019
:1004300070E041E050E00E94300185E06EEF70E036
:100440000E941E31809190008F7D809390006C9867
:10045000749A809190008F77809390006B9A739834
:1004600061E070E080E090E00E949330649B08C0FF
:1004700082E090E065E070E041E050E00E943001F1
:1004800085E06EEF70E00E941E316B9880919000C5
:100490008F7780939000739A6C9A809190008F7DF3
:1004A00080939000749861E070E080E090E00E949A
:1004B0009330809190008F7780939000639B08C069
:1004C00085E090E062E070E042E050E00E943001A0
:1004D00082E06EEF70E00E941E316B988091900078
:1004E0008F7780939000739A6C9A809190008F7DA3
:1004F00080939000749861E070E080E090E00E944A
:100500009330809190008F7780939000639B08C018
:1005100085E090E062E070E042E050E00E9430014F
:100520006B98809190008F7780939000739A6C9A6B
:10053000809190008F7D80939000749861E070E0CE
:1005400080E090E00E949330809190008F778093BC
:100550009000639B08C085E090E062E070E042E0BC
:1005600050E00E943001809190008F77809390003E
:100570006B98739A809190008F7D809390006C9A15
:10058000749861E070E080E090E00E949330639B9B
:1005900008C085E090E062E070E042E050E00E9438
:1005A000300185E06EEF70E00E941E318091900076
:1005B0008F77809390006B98739A809190008F7DD5
:1005C000809390006C9A749861E070E080E090E015
:1005D0000E949330639B08C085E090E062E070E089
:1005E00042E050E00E94300182E06EEF70E00E9435
:1005F0001E31809190008F77809390006B98739A52
:10060000809190008F7D809390006C9A749861E047
:1006100070E080E090E00E949330639B08C085E02A
:1006200090E062E070E042E050E00E94300185E03E
:1006300061E070E00E941E316B98809190008F778E
:100640008093900073986C9A809190008F7D809336
:100650009000749A61E070E080E090E00E94933036
:10066000809190008F7780939000639908C085E017
:1006700090E062E070E043E050E00E94300182E0F0
:1006800061E070E00E941E316B98809190008F773E
:100690008093900073986C9A809190008F7D8093E6
:1006A0009000749A61E070E080E090E00E949330E6
:1006B000809190008F7780939000639908C085E0C7
:1006C00090E062E070E043E050E00E9430016B98FF
:1006D000809190008F778093900073986C9A8091AE
:1006E00090008F7D80939000749A61E070E080E0CC
:1006F00090E00E949330809190008F7780939000DB
:10070000639908C085E090E062E070E043E050E06B
:100710000E943001809190008F77809390006B98B9
:100720007398809190008F7D809390006C9A749A5A
:1007300061E070E080E090E00E949330639908C02F
:1007400085E090E062E070E043E050E00E9430011C
:1007500085E061E070E00E941E31809190008F770B
:10076000809390006B987398809190008F7D809318
:1007700090006C9A749A61E070E080E090E00E94D2
:100780009330639908C085E090E062E070E043E058
:1007900050E00E94300182E061E070E00E941E3172
:1007A000809190008F77809390006B9873988091E0
:1007B00090008F7D809390006C9A749A61E070E055
:1007C00080E090E00E949330639908C085E090E05B
:1007D00062E070E043E050E00E94300182E061E0BE
:1007E00070E00E941E316C98809190008F7D809304
:1007F000900074986B9A809190008F77809390000E
:10080000739A61E070E080E090E00E949330809104
:1008100090008F7D80939000649908C082E090E002
:1008200065E070E044E050E00E94300185E061E066
:1008300070E00E941E316C98809190008F7D8093B3
:10084000900074986B9A809190008F7780939000BD
:10085000739A61E070E080E090E00E9493308091B4
:1008600090008F7D80939000649908C082E090E0B2
:1008700065E070E044E050E00E9430016C988091A7
:1008800090008F7D8093900074986B9A8091900077
:100890008F7780939000739A61E070E080E090E041
:1008A0000E949330809190008F7D80939000649996
:1008B00008C082E090E065E070E044E050E00E9413
:1008C0003001809190008F7D809390006C98749897
:1008D000809190008F77809390006B9A739A61E07B
:1008E00070E080E090E00E949330649908C082E05C
:1008F00090E065E070E044E050E00E94300182E06A
:1009000061E070E00E941E31809190008F7D8093A5
:1009100090006C987498809190008F7780939000ED
:100920006B9A739A61E070E080E090E00E949330EF
:10093000649908C082E090E065E070E044E050E037
:100940000E94300185E061E070E00E941E318091DC
:1009500090008F7D809390006C98749880919000A7
:100960008F77809390006B9A739A61E070E080E0DB
:1009700090E00E949330649908C082E090E065E0C6
:1009800070E044E050E00E94300183E06EEF70E0E0
:100990000E941E316D9880919000877F8093900017
:1009A000759A809101018860809301018091A00077
:1009B0008F778093A00080910201877F809302014E
:1009C00061E070E080E090E00E94933080919000C0
:1009D000877F80939000659B08C083E090E066E08D
:1009E00070E041E050E00E94300186E06EEF70E080
:1009F0000E941E316D9880919000877F80939000B7
:100A0000759A809101018860809301018091A00016
:100A10008F778093A00080910201877F80930201ED
:100A200061E070E080E090E00E949330809190005F
:100A3000877F80939000659B08C083E090E066E02C
:100A400070E041E050E00E9430016D98809190008C
:100A5000877F80939000759A8091010188608093D0
:100A600001018091A0008F778093A0008091020106
:100A7000877F8093020161E070E080E090E00E9457
:100A8000933080919000877F80939000659B08C091
:100A900083E090E066E070E041E050E00E943001C9
:100AA00080919000877F809390006D98759A8091D7
:100AB000A0008F778093A0008091010188608093CF
:100AC000010180910201877F8093020161E070E063
:100AD00080E090E00E949330659B08C083E090E046
:100AE00066E070E041E050E00E94300183E06EEF8C
:100AF00070E00E941E3180919000877F809390006B
:100B00006D98759A8091A0008F778093A000809156
:100B1000010188608093010180910201877F8093A9
:100B2000020161E070E080E090E00E949330659BFC
:100B300008C083E090E066E070E041E050E00E9491
:100B4000300186E06EEF70E00E941E3180919000CF
:100B5000877F809390006D98759A8091A0008F7721
:100B60008093A000809101018860809301018091B1
:100B70000201877F8093020161E070E080E090E0F5
:100B80000E949330659B08C083E090E066E070E0CF
:100B900041E050E00E94300186E06EEF70E00E947C
:100BA0001E3180910101877F809301018091A00017
:100BB0008F778093A000809102018860809302016A
:100BC0006D9A80919000877F80939000759861E086
:100BD00070E080E090E00E9493308091A0008F77D9
:100BE0008093A0008091000183FF08C086E090E020
:100BF00063E070E042E050E00E94300183E06EEF7D
:100C000070E00E941E3180910101877F8093010175
:100C10008091A0008F778093A0008091020188606E
:100C2000809302016D9A80919000877F809390005D
:100C3000759861E070E080E090E00E9493308091D0
:100C4000A0008F778093A0008091000183FF08C0EF
:100C500086E090E063E070E042E050E00E94300106
:100C600080910101877F809301018091A0008F779F
:100C70008093A000809102018860809302016D9AA8
:100C800080919000877F80939000759861E070E07C
:100C900080E090E00E9493308091A0008F77809355
:100CA000A0008091000183FF08C086E090E063E02F
:100CB00070E042E050E00E9430018091A0008F7708
:100CC0008093A00080910101877F80930101809132
:100CD000020188608093020180919000877F809359
:100CE00090006D9A759861E070E080E090E00E945D
:100CF00093308091000183FF08C086E090E063E0BC
:100D000070E042E050E00E94300186E06EEF70E05B
:100D10000E941E318091A0008F778093A000809167
:100D20000101877F80930101809102018860809397
:100D3000020180919000877F809390006D9A759852
:100D400061E070E080E090E00E94933080910001CB
:100D500083FF08C086E090E063E070E042E050E08E
:100D60000E94300183E06EEF70E00E941E3180919E
:100D7000A0008F778093A00080910101877F8093EE
:100D800001018091020188608093020180919000AE
:100D9000877F809390006D9A759861E070E080E0A5
:100DA00090E00E9493308091000183FF08C086E0AC
:100DB00090E063E070E042E050E00E94300186E0A5
:100DC00061E070E00E941E3180910101877F809375
:100DD00001018091A0008F778093A0008091020193
:100DE000877F809302016D9A80919000877F809326
:100DF0009000759A61E070E080E090E00E9493308E
:100E00008091A0008F778093A0008091000183FDE6
:100E100008C086E090E063E070E043E050E00E94AC
:100E2000300183E061E070E00E941E318091010199
:100E3000877F809301018091A0008F778093A0002D
:100E400080910201877F809302016D9A80919000CA
:100E5000877F80939000759A61E070E080E090E079
:100E60000E9493308091A0008F778093A0008091A2
:100E7000000183FD08C086E090E063E070E043E09D
:100E800050E00E94300180910101877F8093010131
:100E90008091A0008F778093A00080910201877FCE
:100EA000809302016D9A80919000877F80939000DB
:100EB000759A61E070E080E090E00E94933080914C
:100EC000A0008F778093A0008091000183FD08C06F
:100ED00086E090E063E070E043E050E00E94300183
:100EE0008091A0008F778093A00080910101877F7F
:100EF0008093010180910201877F8093020180919C
:100F00009000877F809390006D9A759A61E070E001
:100F100080E090E00E9493308091000183FD08C042
:100F200086E090E063E070E043E050E00E94300132
:100F300086E061E070E00E941E318091A0008F7712
:100F40008093A00080910101877F809301018091AF
:100F50000201877F8093020180919000877F8093B8
:100F600090006D9A759A61E070E080E090E00E94D8
:100F700093308091000183FD08C086E090E063E03B
:100F800070E043E050E00E94300183E061E070E0F7
:100F90000E941E318091A0008F778093A0008091E5
:100FA0000101877F8093010180910201877F8093F7
:100FB000020180919000877F809390006D9A759ACE
:100FC00061E070E080E090E00E9493308091000149
:100FD00083FD08C086E090E063E070E043E050E00D
:100FE0000E94300183E061E070E00E941E316D9844
:100FF00080919000877F8093900075988091010187
:101000008860809301018091A0008F778093A00079
:101010008091020188608093020161E070E080E0CD
:1010200090E00E94933080919000877F80939000A1
:10103000659908C083E090E066E070E044E050E02D
:101040000E94300186E061E070E00E941E316D98E0
:1010500080919000877F8093900075988091010126
:101060008860809301018091A0008F778093A00019
:101070008091020188608093020161E070E080E06D
:1010800090E00E94933080919000877F8093900041
:10109000659908C083E090E066E070E044E050E0CD
:1010A0000E9430016D9880919000877F809390001E
:1010B0007598809101018860809301018091A00062
:1010C0008F778093A0008091020188608093020155
:1010D00061E070E080E090E00E94933080919000A9
:1010E000877F80939000659908C083E090E066E078
:1010F00070E044E050E00E94300180919000877FD2
:10110000809390006D9875988091A0008F77809360
:10111000A00080910101886080930101809102010B
:1011200088608093020161E070E080E090E00E94BE
:101130009330659908C083E090E066E070E044E099
:1011400050E00E94300183E061E070E00E941E31B7
:1011500080919000877F809390006D987598809122
:10116000A0008F778093A000809101018860809318
:1011700001018091020188608093020161E070E0CA
:1011800080E090E00E949330659908C083E090E091
:1011900066E070E044E050E00E94300186E061E0EB
:1011A00070E00E941E3180919000877F80939000B4
:1011B0006D9875988091A0008F778093A0008091A2
:1011C0000101886080930101809102018860809311
:1011D000020161E070E080E090E00E949330659948
:1011E00008C083E090E066E070E044E050E00E94D8
:1011F000300184E06EEF70E00E941E319D9884B54E
:101200008F7D84BDA59A8091010180618093010149
:101210008091A0008F7D8093A000809102018F7E3D
:101220008093020161E070E080E090E00E949330E2
:1012300084B58F7D84BD959B08C084E090E067E015
:1012400070E041E050E00E94300187E06EEF70E016
:101250000E941E319D9884B58F7D84BDA59A809192
:1012600001018061809301018091A0008F7D8093B6
:10127000A000809102018F7E8093020161E070E006
:1012800080E090E00E94933084B58F7D84BD959B73
:1012900008C084E090E067E070E041E050E00E9428
:1012A00030019D9884B58F7D84BDA59A8091010100
:1012B0008061809301018091A0008F7D8093A000C8
:1012C000809102018F7E8093020161E070E080E0F6
:1012D00090E00E94933084B58F7D84BD959B08C0BB
:1012E00084E090E067E070E041E050E00E9430016F
:1012F00084B58F7D84BD9D98A59A8091A0008F7D37
:101300008093A00080910101806180930101809110
:1013100002018F7E8093020161E070E080E090E046
:101320000E949330959B08C084E090E067E070E0F5
:1013300041E050E00E94300184E06EEF70E00E94D6
:101340001E3184B58F7D84BD9D98A59A8091A000A3
:101350008F7D8093A00080910101806180930101C5
:10136000809102018F7E8093020161E070E080E055
:1013700090E00E949330959B08C084E090E067E085
:1013800070E041E050E00E94300187E06EEF70E0D5
:101390000E941E3184B58F7D84BD9D98A59A809151
:1013A000A0008F7D8093A0008091010180618093D7
:1013B0000101809102018F7E8093020161E070E063
:1013C00080E090E00E949330959B08C084E090E01C
:1013D00067E070E041E050E00E94300187E06EEF8E
:1013E00070E00E941E31809101018F7E8093010187
:1013F0008091A0008F7D8093A00080910201806188
:10140000809302019D9A84B58F7D84BDA59861E08B
:1014100070E080E090E00E9493308091A0008F7D8A
:101420008093A0008091000184FF08C087E090E0D5
:1014300064E070E042E050E00E94300184E06EEF32
:1014400070E00E941E31809101018F7E8093010126
:101450008091A0008F7D8093A00080910201806127
:10146000809302019D9A84B58F7D84BDA59861E02B
:1014700070E080E090E00E9493308091A0008F7D2A
:101480008093A0008091000184FF08C087E090E075
:1014900064E070E042E050E00E9430018091010180
:1014A0008F7E809301018091A0008F7D8093A000AA
:1014B000809102018061809302019D9A84B58F7DA5
:1014C00084BDA59861E070E080E090E00E949330D8
:1014D0008091A0008F7D8093A0008091000184FF07
:1014E00008C087E090E064E070E042E050E00E94D5
:1014F00030018091A0008F7D8093A0008091010138
:101500008F7E8093010180910201806180930201AE
:1015100084B58F7D84BD9D9AA59861E070E080E0E0
:1015200090E00E9493308091000184FF08C087E022
:1015300090E064E070E042E050E00E94300187E01B
:101540006EEF70E00E941E318091A0008F7D80932D
:10155000A000809101018F7E8093010180910201A2
:1015600080618093020184B58F7D84BD9D9AA5988A
:1015700061E070E080E090E00E9493308091000193
:1015800084FF08C087E090E064E070E042E050E053
:101590000E94300184E06EEF70E00E941E31809165
:1015A000A0008F7D8093A000809101018F7E8093A9
:1015B00001018091020180618093020184B58F7DD9
:1015C00084BD9D9AA59861E070E080E090E00E9463
:1015D00093308091000184FF08C087E090E064E0D0
:1015E00070E042E050E00E94300187E061E070E08E
:1015F0000E941E31809101018F7E809301018091B4
:10160000A0008F7D8093A000809102018F7E809347
:1016100002019D9A84B58F7D84BDA59A61E070E03A
:1016200080E090E00E9493308091A0008F7D8093B5
:10163000A0008091000184FD08C087E090E064E094
:1016400070E043E050E00E94300184E061E070E02F
:101650000E941E31809101018F7E80930101809153
:10166000A0008F7D8093A000809102018F7E8093E7
:1016700002019D9A84B58F7D84BDA59A61E070E0DA
:1016800080E090E00E9493308091A0008F7D809355
:10169000A0008091000184FD08C087E090E064E034
:1016A00070E043E050E00E943001809101018F7EA4
:1016B000809301018091A0008F7D8093A000809194
:1016C00002018F7E809302019D9A84B58F7D84BD37
:1016D000A59A61E070E080E090E00E9493308091F4
:1016E000A0008F7D8093A0008091000184FD08C040
:1016F00087E090E064E070E043E050E00E94300159
:101700008091A0008F7D8093A000809101018F7E49
:1017100080930101809102018F7E8093020184B544
:101720008F7D84BD9D9AA59A61E070E080E090E095
:101730000E9493308091000184FD08C087E090E012
:1017400064E070E043E050E00E94300187E061E037
:1017500070E00E941E318091A0008F7D8093A000D8
:10176000809101018F7E80930101809102018F7E23
:101770008093020184B58F7D84BD9D9AA59A61E016
:1017800070E080E090E00E9493308091000184FD41
:1017900008C087E090E064E070E043E050E00E9421
:1017A000300184E061E070E00E941E318091A00071
:1017B0008F7D8093A000809101018F7E8093010135
:1017C000809102018F7E8093020184B58F7D84BD5C
:1017D0009D9AA59A61E070E080E090E00E949330CD
:1017E0008091000184FD08C087E090E064E070E033
:1017F00043E050E00E94300184E061E070E00E942C
:101800001E319D9884B58F7D84BDA598809101017E
:101810008061809301018091A0008F7D8093A00062
:101820008091020180618093020161E070E080E0BC
:1018300090E00E94933084B58F7D84BD959908C057
:1018400084E090E067E070E044E050E00E94300106
:1018500087E061E070E00E941E319D9884B58F7D25
:1018600084BDA598809101018061809301018091E0
:10187000A0008F7D8093A000809102018061809301
:10188000020161E070E080E090E00E94933084B556
:101890008F7D84BD959908C084E090E067E070E09A
:1018A00044E050E00E9430019D9884B58F7D84BD56
:1018B000A598809101018061809301018091A00031
:1018C0008F7D8093A000809102018061809302014E
:1018D00061E070E080E090E00E94933084B58F7DFD
:1018E00084BD959908C084E090E067E070E044E032
:1018F00050E00E94300184B58F7D84BD9D98A598ED
:101900008091A0008F7D8093A00080910101806173
:10191000809301018091020180618093020161E066
:1019200070E080E090E00E949330959908C084E0D8
:1019300090E067E070E044E050E00E94300184E015
:1019400061E070E00E941E3184B58F7D84BD9D985A
:10195000A5988091A0008F7D8093A00080910101C7
:101960008061809301018091020180618093020176
:1019700061E070E080E090E00E949330959908C0AB
:1019800084E090E067E070E044E050E00E943001C5
:1019900087E061E070E00E941E3184B58F7D84BDD8
:1019A0009D98A5988091A0008F7D8093A000809144
:1019B0000101806180930101809102018061809327
:1019C000020161E070E080E090E00E949330959920
:1019D00008C084E090E067E070E044E050E00E94DE
:1019E000300188E06EEF70E00E941E3180910101AD
:1019F0008F7D809301018091A000877F8093A0005C
:101A000080910201806280930201259A809180007A
:101A10008F77809380002D9861E070E080E090E007
:101A20000E9493308091A000877F8093A0008091D6
:101A3000000185FF08C088E090E06BE070E041E0C5
:101A400050E00E9430018BE06EEF70E00E941E318A
:101A5000809101018F7D809301018091A000877F9B
:101A60008093A00080910201806280930201259AF8
:101A7000809180008F77809380002D9861E070E0E6
:101A800080E090E00E9493308091A000877F809357
:101A9000A0008091000185FF08C088E090E06BE025
:101AA00070E041E050E00E943001809101018F7DA3
:101AB000809301018091A000877F8093A000809196
:101AC0000201806280930201259A809180008F77C5
:101AD000809380002D9861E070E080E090E00E94AB
:101AE00093308091A000877F8093A00080910001B7
:101AF00085FF08C088E090E06BE070E041E050E0D6
:101B00000E9430018091A000877F8093A000809187
:101B100001018F7D80930101809102018062809399
:101B20000201809180008F7780938000259A2D9804
:101B300061E070E080E090E00E94933080910001CD
:101B400085FF08C088E090E06BE070E041E050E085
:101B50000E94300188E06EEF70E00E941E3180919B
:101B6000A000877F8093A000809101018F7D8093EA
:101B700001018091020180628093020180918000C6
:101B80008F7780938000259A2D9861E070E080E047
:101B900090E00E9493308091000185FF08C088E0AA
:101BA00090E06BE070E041E050E00E9430018BE09B
:101BB0006EEF70E00E941E318091A000877F8093BD
:101BC000A000809101018F7D80930101809102012D
:101BD000806280930201809180008F7780938000E3
:101BE000259A2D9861E070E080E090E00E949330AB
:101BF0008091000185FF08C088E090E06BE070E014
:101C000041E050E00E9430018BE06EEF70E00E94F6
:101C10001E312598809180008F77809380002D9AC7
:101C2000809101018062809301018091A000877FF3
:101C30008093A000809102018F7D8093020161E07A
:101C400070E080E090E00E949330809180008F7778
:101C5000809380001D9B08C08BE090E068E070E0FE
:101C600042E050E00E94300188E06EEF70E00E9498
:101C70001E312598809180008F77809380002D9A67
:101C8000809101018062809301018091A000877F93
:101C90008093A000809102018F7D8093020161E01A
:101CA00070E080E090E00E949330809180008F7718
:101CB000809380001D9B08C08BE090E068E070E09E
:101CC00042E050E00E9430012598809180008F779B
:101CD000809380002D9A80910101806280930101A0
:101CE0008091A000877F8093A000809102018F7D6A
:101CF0008093020161E070E080E090E00E94933008
:101D0000809180008F77809380001D9B08C08BE0BE
:101D100090E068E070E042E050E00E943001809185
:101D200080008F778093800025982D9A8091A00065
:101D3000877F8093A00080910101806280930101E0
:101D4000809102018F7D8093020161E070E080E06C
:101D500090E00E9493301D9B08C08BE090E068E00B
:101D600070E042E050E00E9430018BE06EEF70E0E6
:101D70000E941E31809180008F778093800025988B
:101D80002D9A8091A000877F8093A000809101010F
:101D9000806280930101809102018F7D8093020116
:101DA00061E070E080E090E00E9493301D9B08C0ED
:101DB0008BE090E068E070E042E050E00E9430018B
:101DC00088E06EEF70E00E941E31809180008F7776
:101DD0008093800025982D9A8091A000877F809322
:101DE000A000809101018062809301018091020135
:101DF0008F7D8093020161E070E080E090E00E94BE
:101E000093301D9B08C08BE090E068E070E042E0FA
:101E100050E00E9430018BE061E070E00E941E31D2
:101E20002598809180008F77809380002D988091F5
:101E300001018062809301018091A000877F8093DF
:101E4000A0008091020180628093020161E070E055
:101E500080E090E00E949330809180008F778093A3
:101E600080001D9908C08BE090E068E070E043E0DE
:101E700050E00E94300188E061E070E00E941E3175
:101E80002598809180008F77809380002D98809195
:101E900001018062809301018091A000877F80937F
:101EA000A0008091020180628093020161E070E0F5
:101EB00080E090E00E949330809180008F77809343
:101EC00080001D9908C08BE090E068E070E043E07E
:101ED00050E00E9430012598809180008F77809398
:101EE00080002D9880910101806280930101809192
:101EF000A000877F8093A000809102018062809380
:101F0000020161E070E080E090E00E9493308091F7
:101F100080008F77809380001D9908C08BE090E04F
:101F200068E070E043E050E00E9430018091800062
:101F30008F778093800025982D988091A000877FCF
:101F40008093A000809101018062809301018091C3
:101F5000020180628093020161E070E080E090E025
:101F60000E9493301D9908C08BE090E068E070E01B
:101F700043E050E00E9430018BE061E070E00E949D
:101F80001E31809180008F778093800025982D9856
:101F90008091A000877F8093A000809101018062E2
:101FA000809301018091020180628093020161E0CF
:101FB00070E080E090E00E9493301D9908C08BE0B3
:101FC00090E068E070E043E050E00E94300188E07B
:101FD00061E070E00E941E31809180008F778093D5
:101FE000800025982D988091A000877F8093A00085
:101FF00080910101806280930101809102018062E1
:102000008093020161E070E080E090E00E949330F4
:102010001D9908C08BE090E068E070E043E050E07C
:102020000E94300188E061E070E00E941E318091E2
:1020300001018F7D809301018091A000877F8093B3
:10204000A000809102018F7D80930201259A8091EA
:1020500080008F77809380002D9A61E070E080E0AF
:1020600090E00E9493308091A000877F8093A00031
:102070008091000185FD08C088E090E06BE070E091
:1020800044E050E00E9430018BE061E070E00E948B
:102090001E31809101018F7D809301018091A0000C
:1020A000877F8093A000809102018F7D8093020141
:1020B000259A809180008F77809380002D9A61E02F
:1020C00070E080E090E00E9493308091A000877FD4
:1020D0008093A0008091000185FD08C088E090E019
:1020E0006BE070E044E050E00E943001809101011B
:1020F0008F7D809301018091A000877F8093A00055
:10210000809102018F7D80930201259A8091800049
:102110008F77809380002D9A61E070E080E090E0FE
:102120000E9493308091A000877F8093A0008091CF
:10213000000185FD08C088E090E06BE070E044E0BD
:1021400050E00E9430018091A000877F8093A00022
:10215000809101018F7D80930101809102018F7D2B
:1021600080930201809180008F7780938000259A70
:102170002D9A61E070E080E090E00E9493308091C1
:10218000000185FD08C088E090E06BE070E044E06D
:1021900050E00E94300188E061E070E00E941E3152
:1021A0008091A000877F8093A000809101018F7DA6
:1021B00080930101809102018F7D809302018091C3
:1021C00080008F7780938000259A2D9A61E070E0DF
:1021D00080E090E00E9493308091000185FD08C06E
:1021E00088E090E06BE070E044E050E00E94300155
:1021F0008BE061E070E00E941E318091A000877F3B
:102200008093A000809101018F7D809301018091D6
:1022100002018F7D80930201809180008F778093EF
:102220008000259A2D9A61E070E080E090E00E94A5
:1022300093308091000185FD08C088E090E06BE05C
:1022400070E044E050E00E94300189E06EEF70E001
:102250000E941E31809101018F7B8093010180914A
:10226000B0008F7D8093B0008091020180648093E4
:102270000201269A809180008F7D809380002E98A5
:1022800061E070E080E090E00E9493308091B000C7
:102290008F7D8093B0008091000186FF08C089E0A7
:1022A00090E06CE070E041E050E00E9430018CE092
:1022B0006EEF70E00E941E31809101018F7B809350
:1022C00001018091B0008F7D8093B0008091020168
:1022D000806480930201269A809180008F7D809394
:1022E00080002E9861E070E080E090E00E949330E2
:1022F0008091B0008F7D8093B0008091000186FFB7
:1023000008C089E090E06CE070E041E050E00E949D
:102310003001809101018F7B809301018091B00099
:102320008F7D8093B00080910201806480930201D0
:10233000269A809180008F7D809380002E9861E0A6
:1023400070E080E090E00E9493308091B0008F7D3B
:102350008093B0008091000186FF08C089E090E082
:102360006CE070E041E050E00E9430018091B000EC
:102370008F7D8093B000809101018F7B809301015C
:1023800080910201806480930201809180008F7DA2
:1023900080938000269A2E9861E070E080E090E0C3
:1023A0000E9493308091000186FF08C089E090E090
:1023B0006CE070E041E050E00E94300189E06EEF97
:1023C00070E00E941E318091B0008F7D8093B0003C
:1023D000809101018F7B80930101809102018064D3
:1023E00080930201809180008F7D80938000269AE7
:1023F0002E9861E070E080E090E00E949330809140
:10240000000186FF08C089E090E06CE070E041E0E8
:1024100050E00E9430018CE06EEF70E00E941E31AF
:102420008091B0008F7D8093B000809101018F7BFF
:102430008093010180910201806480930201809168
:1024400080008F7D80938000269A2E9861E070E056
:1024500080E090E00E9493308091000186FF08C0E8
:1024600089E090E06CE070E041E050E00E943001D3
:102470008CE06EEF70E00E941E3126988091800003
:102480008F7D809380002E9A8091010180648093DB
:1024900001018091B0008F7D8093B0008091020196
:1024A0008F7B8093020161E070E080E090E00E9409
:1024B0009330809180008F7D809380001E9B08C0A8
:1024C0008CE090E069E070E042E050E00E94300172
:1024D00089E06EEF70E00E941E31269880918000A6
:1024E0008F7D809380002E9A80910101806480937B
:1024F00001018091B0008F7D8093B0008091020136
:102500008F7B8093020161E070E080E090E00E94A8
:102510009330809180008F7D809380001E9B08C047
:102520008CE090E069E070E042E050E00E94300111
:102530002698809180008F7D809380002E9A8091D4
:1025400001018064809301018091B0008F7D8093B0
:10255000B000809102018F7B8093020161E070E006
:1025600080E090E00E949330809180008F7D809386
:1025700080001E9B08C08CE090E069E070E042E0C3
:1025800050E00E943001809180008F7D8093800018
:1025900026982E9A8091B0008F7D8093B000809114
:1025A0000101806480930101809102018F7B8093FF
:1025B000020161E070E080E090E00E9493301E9B99
:1025C00008C08CE090E069E070E042E050E00E94DA
:1025D00030018CE06EEF70E00E941E31809180002F
:1025E0008F7D8093800026982E9A8091B0008F7DF9
:1025F0008093B000809101018064809301018091FB
:1026000002018F7B8093020161E070E080E090E046
:102610000E9493301E9B08C08CE090E069E070E05F
:1026200042E050E00E94300189E06EEF70E00E94CD
:102630001E31809180008F7D8093800026982E9A95
:102640008091B0008F7D8093B00080910101806403
:1026500080930101809102018F7B8093020161E0F0
:1026600070E080E090E00E9493301E9B08C08CE0F8
:1026700090E069E070E042E050E00E9430018CE0C0
:1026800061E070E00E941E312698809180008F7D6D
:10269000809380002E9880910101806480930101D5
:1026A0008091B0008F7D8093B000809102018064A2
:1026B0008093020161E070E080E090E00E9493303E
:1026C000809180008F7D809380001E9908C08CE0EF
:1026D00090E069E070E043E050E00E94300189E062
:1026E00061E070E00E941E312698809180008F7D0D
:1026F000809380002E988091010180648093010175
:102700008091B0008F7D8093B00080910201806441
:102710008093020161E070E080E090E00E949330DD
:10272000809180008F7D809380001E9908C08CE08E
:1027300090E069E070E043E050E00E9430012698AC
:10274000809180008F7D809380002E988091010180
:102750008064809301018091B0008F7D8093B000F0
:102760008091020180648093020161E070E080E06A
:1027700090E00E949330809180008F7D8093800054
:102780001E9908C08CE090E069E070E043E050E002
:102790000E943001809180008F7D80938000269878
:1027A0002E988091B0008F7D8093B00080910101C0
:1027B0008064809301018091020180648093020112
:1027C00061E070E080E090E00E9493301E9908C0C4
:1027D0008CE090E069E070E043E050E00E9430015E
:1027E0008CE061E070E00E941E31809180008F7D5E
:1027F0008093800026982E988091B0008F7D8093E2
:10280000B0008091010180648093010180910201F8
:1028100080648093020161E070E080E090E00E94BB
:1028200093301E9908C08CE090E069E070E043E0CE
:1028300050E00E94300189E061E070E00E941E31AA
:10284000809180008F7D8093800026982E988091C3
:10285000B0008F7D8093B0008091010180648093EF
:1028600001018091020180648093020161E070E0C7
:1028700080E090E00E9493301E9908C08CE090E0C8
:1028800069E070E043E050E00E94300189E061E0DF
:1028900070E00E941E31809101018F7B80930101C5
:1028A0008091B0008F7D8093B000809102018F7B7A
:1028B00080930201269A809180008F7D8093800012
:1028C0002E9A61E070E080E090E00E949330809169
:1028D000B0008F7D8093B0008091000186FD08C01C
:1028E00089E090E06CE070E044E050E00E9430014C
:1028F0008CE061E070E00E941E31809101018F7BCD
:10290000809301018091B0008F7D8093B000809111
:1029100002018F7B80930201269A809180008F7D37
:10292000809380002E9A61E070E080E090E00E9449
:1029300093308091B0008F7D8093B0008091000132
:1029400086FD08C089E090E06CE070E044E050E073
:102950000E943001809101018F7B80930101809161
:10296000B0008F7D8093B000809102018F7B8093B7
:102970000201269A809180008F7D809380002E9A9C
:1029800061E070E080E090E00E9493308091B000C0
:102990008F7D8093B0008091000186FD08C089E0A2
:1029A00090E06CE070E044E050E00E9430018091E3
:1029B000B0008F7D8093B000809101018F7B809368
:1029C0000101809102018F7B809302018091800040
:1029D0008F7D80938000269A2E9A61E070E080E0DF
:1029E00090E00E9493308091000186FD08C089E04C
:1029F00090E06CE070E044E050E00E94300189E03B
:102A000061E070E00E941E318091B0008F7D809364
:102A1000B000809101018F7B8093010180910201C0
:102A20008F7B80930201809180008F7D8093800056
:102A3000269A2E9A61E070E080E090E00E94933048
:102A40008091000186FD08C089E090E06CE070E0B4
:102A500044E050E00E9430018CE061E070E00E94B0
:102A60001E318091B0008F7D8093B0008091010174
:102A70008F7B80930101809102018F7B8093020103
:102A8000809180008F7D80938000269A2E9A61E04D
:102A900070E080E090E00E9493308091000186FD1C
:102AA00008C089E090E06CE070E044E050E00E94F3
:102AB00030018AE06EEF70E00E941E312498809110
:102AC000B0008F778093B0002C9A279A84B58F77C7
:102AD00084BD2F9861E070E080E090E00E94933028
:102AE0008091B0008F778093B0001C9B08C08AE073
:102AF00090E06DE070E041E050E00E9430018DE038
:102B00006EEF70E00E941E3124988091B0008F77A4
:102B10008093B0002C9A279A84B58F7784BD2F9824
:102B200061E070E080E090E00E9493308091B0001E
:102B30008F778093B0001C9B08C08AE090E06DE026
:102B400070E041E050E00E94300124988091B00094
:102B50008F778093B0002C9A279A84B58F7784BDA5
:102B60002F9861E070E080E090E00E9493308091C7
:102B7000B0008F778093B0001C9B08C08AE090E083
:102B80006DE070E041E050E00E9430018091B000C3
:102B90008F778093B00024982C9A84B58F7784BD6A
:102BA000279A2F9861E070E080E090E00E949330D7
:102BB0001C9B08C08AE090E06DE070E041E050E0CE
:102BC0000E9430018AE06EEF70E00E941E31809119
:102BD000B0008F778093B00024982C9A84B58F77BB
:102BE00084BD279A2F9861E070E080E090E00E9419
:102BF00093301C9B08C08AE090E06DE070E041E0FB
:102C000050E00E9430018DE06EEF70E00E941E31B6
:102C10008091B0008F778093B00024982C9A84B56F
:102C20008F7784BD279A2F9861E070E080E090E074
:102C30000E9493301C9B08C08AE090E06DE070E039
:102C400041E050E00E9430018DE06EEF70E00E94A4
:102C50001E31279884B58F7784BD2F9A249A80914E
:102C6000B0008F778093B0002C9861E070E080E036
:102C700090E00E94933084B58F7784BD1F9B08C07D
:102C80008DE090E06AE070E042E050E00E943001A8
:102C90008AE06EEF70E00E941E31279884B58F772E
:102CA00084BD2F9A249A8091B0008F778093B000D2
:102CB0002C9861E070E080E090E00E94933084B551
:102CC0008F7784BD1F9B08C08DE090E06AE070E0C4
:102CD00042E050E00E943001279884B58F7784BD90
:102CE0002F9A249A8091B0008F778093B0002C980F
:102CF00061E070E080E090E00E94933084B58F77CF
:102D000084BD1F9B08C08DE090E06AE070E042E067
:102D100050E00E94300184B58F7784BD27982F9AA8
:102D20008091B0008F778093B000249A2C9861E056
:102D300070E080E090E00E9493301F9B08C08DE01F
:102D400090E06AE070E042E050E00E9430018DE0E7
:102D50006EEF70E00E941E3184B58F7784BD279896
:102D60002F9A8091B0008F778093B000249A2C988E
:102D700061E070E080E090E00E9493301F9B08C00B
:102D80008DE090E06AE070E042E050E00E943001A7
:102D90008AE06EEF70E00E941E3184B58F7784BDAB
:102DA00027982F9A8091B0008F778093B000249A53
:102DB0002C9861E070E080E090E00E9493301F9BCF
:102DC00008C08DE090E06AE070E042E050E00E94D0
:102DD00030018DE061E070E00E941E31279884B5DB
:102DE0008F7784BD2F98249A8091B0008F7780933D
:102DF000B0002C9A61E070E080E090E00E94933097
:102E000084B58F7784BD1F9908C08DE090E06AE09B
:102E100070E043E050E00E9430018AE061E070E041
:102E20000E941E31279884B58F7784BD2F98249AED
:102E30008091B0008F778093B0002C9A61E070E0B1
:102E400080E090E00E94933084B58F7784BD1F9915
:102E500008C08DE090E06AE070E043E050E00E943E
:102E60003001279884B58F7784BD2F98249A80915C
:102E7000B0008F778093B0002C9A61E070E080E022
:102E800090E00E94933084B58F7784BD1F9908C06D
:102E90008DE090E06AE070E043E050E00E94300195
:102EA00084B58F7784BD27982F988091B0008F7755
:102EB0008093B000249A2C9A61E070E080E090E06A
:102EC0000E9493301F9908C08DE090E06AE070E0A6
:102ED00043E050E00E9430018DE061E070E00E942C
:102EE0001E3184B58F7784BD27982F988091B000CC
:102EF0008F778093B000249A2C9A61E070E080E094
:102F000090E00E9493301F9908C08DE090E06AE045
:102F100070E043E050E00E9430018AE061E070E040
:102F20000E941E3184B58F7784BD27982F98809199
:102F3000B0008F778093B000249A2C9A61E070E003
:102F400080E090E00E9493301F9908C08DE090E0EF
:102F50006AE070E043E050E00E9430018AE061E006
:102F600070E00E941E3124988091B0008F7780938A
:102F7000B0002C98279A84B58F7784BD2F9A61E092
:102F800070E080E090E00E9493308091B0008F77F5
:102F90008093B0001C9908C08AE090E06DE070E07A
:102FA00044E050E00E9430018DE061E070E00E945A
:102FB0001E3124988091B0008F778093B0002C98B8
:102FC000279A84B58F7784BD2F9A61E070E080E006
:102FD00090E00E9493308091B0008F778093B00092
:102FE0001C9908C08AE090E06DE070E044E050E099
:102FF0000E94300124988091B0008F778093B000B8
:103000002C98279A84B58F7784BD2F9A61E070E061
:1030100080E090E00E9493308091B0008F778093A1
:10302000B0001C9908C08AE090E06DE070E044E0D8
:1030300050E00E9430018091B0008F778093B00003
:1030400024982C9884B58F7784BD279A2F9A61E0B5
:1030500070E080E090E00E9493301C9908C08AE004
:1030600090E06DE070E044E050E00E9430018AE0C2
:1030700061E070E00E941E318091B0008F778093F4
:10308000B00024982C9884B58F7784BD279A2F9A06
:1030900061E070E080E090E00E9493301C9908C0ED
:1030A0008AE090E06DE070E044E050E00E94300182
:1030B0008DE061E070E00E941E318091B0008F775A
:1030C0008093B00024982C9884B58F7784BD279A7C
:1030D0002F9A61E070E080E090E00E9493301C99AC
:1030E00008C08AE090E06DE070E044E050E00E94AB
:1030F00030018EE06EEF70E00E941E31809104017D
:103100008D7F809304018091050182608093050189
:1031100080910101816080930101809102018E7F85
:103120008093020161E070E080E090E00E949330C3
:103130008091030181FF08C08EE090E061E170E0C2
:1031400041E050E00E943001809104018D7F809326
:103150000401809105018260809305018091010145
:10316000816080930101809102018E7F8093020132
:1031700061E070E080E090E00E9493308091030174
:1031800081FF08C08EE090E061E170E041E050E036
:103190000E9430018EE06EEF70E00E941E3180913F
:1031A00004018D7F809304018091050182608093EA
:1031B00005018091010181608093010180910201EC
:1031C0008E7F8093020161E070E080E090E00E94D9
:1031D00093308091030181FF08C08EE090E061E1AF
:1031E00070E041E050E00E943001809104018D7F49
:1031F0008093040180910501826080930501809194
:103200000101816080930101809102018E7F809392
:10321000020161E070E080E090E00E9493308091D4
:10322000030181FF08C08EE090E061E170E041E0C1
:1032300050E00E943001809101018E7F8093010156
:10324000809102018160809302018091040182607B
:1032500080930401809105018D7F8093050161E0D9
:1032600070E080E090E00E9493308091000180FF48
:1032700008C081E190E06EE070E042E050E00E9422
:1032800030018EE06EEF70E00E941E3180910101EE
:103290008E7F809301018091020181608093020101
:1032A00080910401826080930401809105018D7FEB
:1032B0008093050161E070E080E090E00E9493302F
:1032C0008091000180FF08C081E190E06EE070E035
:1032D00042E050E00E943001809101018E7F809396
:1032E00001018091020181608093020180910401BB
:1032F000826080930401809105018D7F8093050198
:1033000061E070E080E090E00E94933080910001E5
:1033100080FF08C081E190E06EE070E042E050E0A4
:103320000E9430018EE06EEF70E00E941E318091AD
:1033300001018E7F80930101809102018160809361
:103340000201809104018260809304018091050153
:103350008D7F8093050161E070E080E090E00E9445
:1033600093308091000180FF08C081E190E06EE021
:1033700070E042E050E00E943001809101018E7FB8
:1033800080930101809102018E7F809302018091E0
:103390000401826080930401809105018260809322
:1033A000050161E070E080E090E00E949330809140
:1033B000000180FD08C081E190E06EE070E043E034
:1033C00050E00E9430018EE061E070E00E941E310A
:1033D000809101018E7F80930101809102018E7F97
:1033E00080930201809104018260809304018091A6
:1033F000050182608093050161E070E080E090E06B
:103400000E9493308091000180FD08C081E190E02E
:103410006EE070E043E050E00E94300180910101D5
:103420008E7F80930101809102018E7F8093020143
:103430008091040182608093040180910501826083
:103440008093050161E070E080E090E00E9493309D
:103450008091000180FD08C081E190E06EE070E0A5
:1034600043E050E00E9430018EE061E070E00E9495
:103470001E31809101018E7F8093010180910201B4
:103480008E7F809302018091040182608093040109
:103490008091050182608093050161E070E080E029
:1034A00090E00E9493308091000180FD08C081E18E
:1034B00090E06EE070E043E050E00E9430018EE06A
:1034C00061E070E00E941E31809104018D7F809345
:1034D0000401809105018D7F809305018091010198
:1034E00081608093010180910201816080930201DB
:1034F00061E070E080E090E00E94933080910301F1
:1035000081FD08C08EE090E061E170E044E050E0B1
:103510000E943001809104018D7F8093040180918D
:1035200005018D7F80930501809101018160809369
:1035300001018091020181608093020161E070E0ED
:1035400080E090E00E9493308091030181FD08C0EB
:103550008EE090E061E170E044E050E00E943001D4
:103560008EE061E070E00E941E31809104018D7F49
:1035700080930401809105018D7F809305018091E6
:10358000010181608093010180910201816080933B
:10359000020161E070E080E090E00E949330809151
:1035A000030181FD08C08EE090E061E170E044E03D
:1035B00050E00E943001809104018D7F80930401CE
:1035C000809105018D7F80930501809101018160CB
:1035D000809301018091020181608093020161E08A
:1035E00070E080E090E00E9493308091030181FDC3
:1035F00008C08EE090E061E170E044E050E00E949D
:103600003001809104018E7F809304018091050137
:10361000816080930501539A5B9861E070E080E0DF
:1036200090E00E9493308091030180FF08C08FE0FA
:1036300090E062E170E041E050E00E943001809152
:1036400004018E7F80930401809105018160809345
:103650000501539A5B9861E070E080E090E00E9481
:1036600093308091030180FF08C08FE090E062E119
:1036700070E041E050E00E94300153985B9A8091E5
:103680000401816080930401809105018E7F809305
:10369000050161E070E080E090E00E9493304B9B78
:1036A00008C082E190E06FE070E042E050E00E94EC
:1036B000300153985B9A80910401816080930401EA
:1036C000809105018E7F8093050161E070E080E0CC
:1036D00090E00E9493304B9B08C082E190E06FE045
:1036E00070E042E050E00E94300153985B98809176
:1036F00004018160809304018091050181608093C1
:10370000050161E070E080E090E00E9493304B9909
:1037100008C082E190E06FE070E043E050E00E947A
:10372000300153985B98809104018160809304017B
:103730008091050181608093050161E070E080E087
:1037400090E00E9493304B9908C082E190E06FE0D6
:1037500070E043E050E00E943001809104018E7FD0
:1037600080930401809105018E7F80930501539A17
:103770005B9A61E070E080E090E00E94933080917D
:10378000030180FD08C08FE090E062E170E044E05A
:1037900050E00E943001809104018E7F80930401EB
:1037A000809105018E7F80930501539A5B9A61E0B9
:1037B00070E080E090E00E9493308091030180FDF2
:1037C00008C08FE090E062E170E044E050E00E94C9
:1037D0003001809101018D7F809301018091020170
:1037E000826080930201529A5A9861E070E080E012
:1037F00090E00E9493308091000181FF08C080E139
:1038000090E063E170E041E050E00E94300180917F
:1038100001018D7F8093010180910201826080937C
:103820000201529A5A9861E070E080E090E00E94B4
:1038300093308091000181FF08C080E190E063E156
:1038400070E041E050E00E94300152985A9A809115
:103850000101826080930101809102018D7F80933C
:10386000020161E070E080E090E00E9493304A9BAA
:1038700008C083E190E060E170E042E050E00E9427
:10388000300152985A9A809101018260809301011F
:10389000809102018D7F8093020161E070E080E001
:1038A00090E00E9493304A9B08C083E190E060E181
:1038B00070E042E050E00E94300152985A988091A6
:1038C00001018260809301018091020182608093F6
:1038D000020161E070E080E090E00E9493304A993C
:1038E00008C083E190E060E170E043E050E00E94B6
:1038F000300152985A9880910101826080930101B1
:103900008091020182608093020161E070E080E0BA
:1039100090E00E9493304A9908C083E190E060E112
:1039200070E043E050E00E943001809101018D7F02
:1039300080930101809102018D7F80930201529A50
:103940005A9A61E070E080E090E00E9493308091AC
:10395000000181FD08C080E190E063E170E044E097
:1039600050E00E943001809101018D7F8093010120
:10397000809102018D7F80930201529A5A9A61E0F0
:1039800070E080E090E00E9493308091000181FD22
:1039900008C080E190E063E170E044E050E00E9404
:1039A00030015198599A509A589861E070E080E03F
:1039B00090E00E949330499B08C084E190E065E16B
:1039C00070E041E050E00E9430015198599A509ABD
:1039D000589861E070E080E090E00E949330499B4D
:1039E00008C084E190E065E170E041E050E00E94B1
:1039F00030015098589A519A599861E070E080E0EF
:103A000090E00E949330489B08C085E190E064E11B
:103A100070E042E050E00E9430015098589A519A6C
:103A2000599861E070E080E090E00E949330489BFC
:103A300008C085E190E064E170E042E050E00E945F
:103A4000300150985898519A599A61E070E080E09E
:103A500090E00E949330489908C085E190E064E1CD
:103A600070E043E050E00E94300150985898519A1D
:103A7000599A61E070E080E090E00E9493304899AC
:103A800008C085E190E064E170E043E050E00E940E
:103A9000300151985998509A589A61E070E080E04E
:103AA00090E00E949330499908C084E190E065E17C
:103AB00070E044E050E00E94300151985998509ACB
:103AC000589A61E070E080E090E00E94933049995C
:103AD00008C084E190E065E170E044E050E00E94BD
:103AE00030010898109A099A119861E070E080E01E
:103AF00090E00E949330009B08C086E190E067E16F
:103B000070E041E050E00E9430010898109A099A54
:103B1000119861E070E080E090E00E949330009B9B
:103B200008C086E190E067E170E041E050E00E946B
:103B300030010998119A089A109861E070E080E0CD
:103B400090E00E949330019B08C087E190E066E11D
:103B500070E042E050E00E9430010998119A089A02
:103B6000109861E070E080E090E00E949330019B4B
:103B700008C087E190E066E170E042E050E00E941A
:103B8000300109981198089A109A61E070E080E07D
:103B900090E00E949330019908C087E190E066E1CF
:103BA00070E043E050E00E94300109981198089AB3
:103BB000109A61E070E080E090E00E9493300199FB
:103BC00008C087E190E066E170E043E050E00E94C9
:103BD000300108981098099A119A61E070E080E02D
:103BE00090E00E949330009908C086E190E067E180
:103BF00070E044E050E00E94300108981098099A63
:103C0000119A61E070E080E090E00E9493300099AA
:103C100008C086E190E067E170E044E050E00E9477
:103C200030010A98129A0B9A139861E070E080E0D4
:103C300090E00E949330029B08C088E190E069E127
:103C400070E041E050E00E9430010A98129A0B9A0D
:103C5000139861E070E080E090E00E949330029B56
:103C600008C088E190E069E170E041E050E00E9426
:103C700030010B98139A0A9A129861E070E080E084
:103C800090E00E949330039B08C089E190E068E1D6
:103C900070E042E050E00E9430010B98139A0A9ABB
:103CA000129861E070E080E090E00E949330039B06
:103CB00008C089E190E068E170E042E050E00E94D5
:103CC00030010B9813980A9A129A61E070E080E034
:103CD00090E00E949330039908C089E190E068E188
:103CE00070E043E050E00E9430010B9813980A9A6C
:103CF000129A61E070E080E090E00E9493300399B6
:103D000008C089E190E068E170E043E050E00E9483
:103D100030010A9812980B9A139A61E070E080E0E3
:103D200090E00E949330029908C088E190E069E138
:103D300070E044E050E00E9430010A9812980B9A1B
:103D4000139A61E070E080E090E00E949330029965
:103D500008C088E190E069E170E044E050E00E9432
:103D600030010C98149A0D9A159861E070E080E08B
:103D700090E00E949330049B08C08AE190E06BE1E0
:103D800070E041E050E00E9430010C98149A0D9AC6
:103D9000159861E070E080E090E00E949330049B11
:103DA00008C08AE190E06BE170E041E050E00E94E1
:103DB00030010D98159A0C9A149861E070E080E03B
:103DC00090E00E949330059B08C08BE190E06AE18F
:103DD00070E042E050E00E9430010D98159A0C9A74
:103DE000149861E070E080E090E00E949330059BC1
:103DF00008C08BE190E06AE170E042E050E00E9490
:103E000030010D9815980C9A149A61E070E080E0EA
:103E100090E00E949330059908C08BE190E06AE140
:103E200070E043E050E00E9430010D9815980C9A24
:103E3000149A61E070E080E090E00E949330059970
:103E400008C08BE190E06AE170E043E050E00E943E
:103E500030010C9814980D9A159A61E070E080E09A
:103E600090E00E949330049908C08AE190E06BE1F1
:103E700070E044E050E00E9430010C9814980D9AD4
:103E8000159A61E070E080E090E00E949330049920
:103E900008C08AE190E06BE170E044E050E00E94ED
:103EA00030010E98169A0F9A179861E070E080E042
:103EB00090E00E949330069B08C08CE190E06DE199
:103EC00070E041E050E00E9430010E98169A0F9A7F
:103ED000179861E070E080E090E00E949330069BCC
:103EE00008C08CE190E06DE170E041E050E00E949C
:103EF00030010F98179A0E9A169861E070E080E0F2
:103F000090E00E949330079B08C08DE190E06CE147
:103F100070E042E050E00E9430010F98179A0E9A2C
:103F2000169861E070E080E090E00E949330079B7B
:103F300008C08DE190E06CE170E042E050E00E944A
:103F400030010F9817980E9A169A61E070E080E0A1
:103F500090E00E949330079908C08DE190E06CE1F9
:103F600070E043E050E00E9430010F9817980E9ADD
:103F7000169A61E070E080E090E00E94933007992B
:103F800008C08DE190E06CE170E043E050E00E94F9
:103F900030010E9816980F9A179A61E070E080E051
:103FA00090E00E949330069908C08CE190E06DE1AA
:103FB00070E044E050E00E9430010E9816980F9A8D
:103FC000179A61E070E080E090E00E9493300699DB
:103FD00008C08CE190E06DE170E044E050E00E94A8
:103FE00030013F98479A3E9A469861E070E080E041
:103FF00090E00E949330379B08C08EE190E06FE123
:1040000070E041E050E00E9430013F98479A3E9AAC
:10401000469861E070E080E090E00E949330379B2A
:1040200008C08EE190E06FE170E041E050E00E9456
:1040300030013E98469A3F9A479861E070E080E0F0
:1040400090E00E949330369B08C08FE190E06EE1D3
:1040500070E042E050E00E9430013E98469A3F9A5C
:10406000479861E070E080E090E00E949330369BDA
:1040700008C08FE190E06EE170E042E050E00E9405
:1040800030013E9846983F9A479A61E070E080E0A0
:1040900090E00E949330369908C08FE190E06EE185
:1040A00070E043E050E00E9430013E9846983F9A0D
:1040B000479A61E070E080E090E00E94933036998A
:1040C00008C08FE190E06EE170E043E050E00E94B4
:1040D00030013F9847983E9A469A61E070E080E050
:1040E00090E00E949330379908C08EE190E06FE134
:1040F00070E044E050E00E9430013F9847983E9ABB
:10410000469A61E070E080E090E00E949330379939
:1041100008C08EE190E06FE170E044E050E00E9462
:1041200030013D98459A3C9A449861E070E080E007
:1041300090E00E949330359B08C080E290E061E2FD
:1041400070E041E050E00E9430013D98459A3C9A71
:10415000449861E070E080E090E00E949330359BED
:1041600008C080E290E061E270E041E050E00E942F
:1041700030013C98449A3D9A459861E070E080E0B7
:1041800090E00E949330349B08C081E290E060E2AE
:1041900070E042E050E00E9430013C98449A3D9A21
:1041A000459861E070E080E090E00E949330349B9D
:1041B00008C081E290E060E270E042E050E00E94DE
:1041C00030013C9844983D9A459A61E070E080E067
:1041D00090E00E949330349908C081E290E060E260
:1041E00070E043E050E00E9430013C9844983D9AD2
:1041F000459A61E070E080E090E00E94933034994D
:1042000008C081E290E060E270E043E050E00E948C
:1042100030013D9845983C9A449A61E070E080E016
:1042200090E00E949330359908C080E290E061E20E
:1042300070E044E050E00E9430013D9845983C9A7F
:10424000449A61E070E080E090E00E9493303599FC
:1042500008C080E290E061E270E044E050E00E943B
:1042600030013B98439A3A9A429861E070E080E0CE
:1042700090E00E949330339B08C082E290E063E2BA
:1042800070E041E050E00E9430013B98439A3A9A36
:10429000429861E070E080E090E00E949330339BB0
:1042A00008C082E290E063E270E041E050E00E94EA
:1042B00030013A98429A3B9A439861E070E080E07E
:1042C00090E00E949330329B08C083E290E062E26B
:1042D00070E042E050E00E9430013A98429A3B9AE6
:1042E000439861E070E080E090E00E949330329B60
:1042F00008C083E290E062E270E042E050E00E9499
:1043000030013A9842983B9A439A61E070E080E02D
:1043100090E00E949330329908C083E290E062E21C
:1043200070E043E050E00E9430013A9842983B9A96
:10433000439A61E070E080E090E00E94933032990F
:1043400008C083E290E062E270E043E050E00E9447
:1043500030013B9843983A9A429A61E070E080E0DD
:1043600090E00E949330339908C082E290E063E2CB
:1043700070E044E050E00E9430013B9843983A9A44
:10438000429A61E070E080E090E00E9493303399BF
:1043900008C082E290E063E270E044E050E00E94F6
:1043A00030013998419A389A409861E070E080E095
:1043B00090E00E949330319B08C084E290E065E277
:1043C00070E041E050E00E9430013998419A389AFB
:1043D000409861E070E080E090E00E949330319B73
:1043E00008C084E290E065E270E041E050E00E94A5
:1043F00030013898409A399A419861E070E080E045
:1044000090E00E949330309B08C085E290E064E227
:1044100070E042E050E00E9430013898409A399AAA
:10442000419861E070E080E090E00E949330309B22
:1044300008C085E290E064E270E042E050E00E9453
:10444000300138984098399A419A61E070E080E0F4
:1044500090E00E949330309908C085E290E064E2D9
:1044600070E043E050E00E94300138984098399A5B
:10447000419A61E070E080E090E00E9493303099D2
:1044800008C085E290E064E270E043E050E00E9402
:10449000300139984198389A409A61E070E080E0A4
:1044A00090E00E949330319908C084E290E065E288
:1044B00070E044E050E00E94300139984198389A09
:1044C000409A61E070E080E090E00E949330319982
:1044D00008C084E290E065E270E044E050E00E94B1
:1044E000300157985F9A9A9AA29861E070E080E054
:1044F00090E00E9493304F9B08C086E290E067E214
:1045000070E041E050E00E94300157985F9A9A9A1B
:10451000A29861E070E080E090E00E9493304F9BB1
:1045200008C086E290E067E270E041E050E00E945F
:1045300030019A98A29A579A5F9861E070E080E003
:1045400090E00E949330929B08C087E290E066E280
:1045500070E042E050E00E9430019A98A29A579A87
:104560005F9861E070E080E090E00E949330929B61
:1045700008C087E290E066E270E042E050E00E940E
:1045800030019A98A298579A5F9A61E070E080E0B3
:1045900090E00E949330929908C087E290E066E232
:1045A00070E043E050E00E9430019A98A298579A38
:1045B0005F9A61E070E080E090E00E949330929911
:1045C00008C087E290E066E270E043E050E00E94BD
:1045D000300157985F989A9AA29A61E070E080E063
:1045E00090E00E9493304F9908C086E290E067E225
:1045F00070E044E050E00E94300157985F989A9A2A
:10460000A29A61E070E080E090E00E9493304F99C0
:1046100008C086E290E067E270E044E050E00E946B
:1046200030019998A19A989AA09861E070E080E092
:1046300090E00E949330919B08C088E290E069E28C
:1046400070E041E050E00E9430019998A19A989A58
:10465000A09861E070E080E090E00E949330919B30
:1046600008C088E290E069E270E041E050E00E941A
:1046700030019898A09A999AA19861E070E080E042
:1046800090E00E949330909B08C089E290E068E23D
:1046900070E042E050E00E9430019898A09A999A08
:1046A000A19861E070E080E090E00E949330909BE0
:1046B00008C089E290E068E270E042E050E00E94C9
:1046C00030019898A098999AA19A61E070E080E0F2
:1046D00090E00E949330909908C089E290E068E2EF
:1046E00070E043E050E00E9430019898A098999AB9
:1046F000A19A61E070E080E090E00E949330909990
:1047000008C089E290E068E270E043E050E00E9477
:1047100030019998A198989AA09A61E070E080E0A1
:1047200090E00E949330919908C088E290E069E29D
:1047300070E044E050E00E9430019998A198989A66
:10474000A09A61E070E080E090E00E94933091993F
:1047500008C088E290E069E270E044E050E00E9426
:10476000300180910A018F7780930A0180910B01BB
:10477000806880930B0180910A01806480930A0114
:1047800080910B018F7B80930B0161E070E080E0F2
:1047900090E00E9493308091090187FF08C08AE26F
:1047A00090E06BE270E041E050E00E9430018091C7
:1047B0000A018F7780930A0180910B0180688093B2
:1047C0000B0180910A01806480930A0180910B01A2
:1047D0008F7B80930B0161E070E080E090E00E94AD
:1047E00093308091090187FF08C08AE290E06BE274
:1047F00070E041E050E00E94300180910A018F7B1F
:1048000080930A0180910B01806480930B01809159
:104810000A01806880930A0180910B018F77809351
:104820000B0161E070E080E090E00E9493308091A5
:10483000090186FF08C08BE290E06AE270E042E086
:1048400050E00E94300180910A018F7B80930A0121
:1048500080910B01806480930B0180910A01806834
:1048600080930A0180910B018F7780930B0161E0A7
:1048700070E080E090E00E9493308091090186FF13
:1048800008C08BE290E06AE270E042E050E00E94F3
:10489000300180910A018F7B80930A0180910B0186
:1048A0008F7B80930B0180910A01806880930A01BD
:1048B00080910B01806880930B0161E070E080E0E3
:1048C00090E00E9493308091090186FD08C08BE240
:1048D00090E06AE270E043E050E00E943001809195
:1048E0000A018F7B80930A0180910B018F7B80935B
:1048F0000B0180910A01806880930A0180910B016D
:10490000806880930B0161E070E080E090E00E949D
:1049100093308091090186FD08C08BE290E06AE245
:1049200070E043E050E00E94300180910A018F77EF
:1049300080930A0180910B018F7780930B01809106
:104940000A01806480930A0180910B018064809346
:104950000B0161E070E080E090E00E949330809174
:10496000090187FD08C08AE290E06BE270E044E054
:1049700050E00E94300180910A018F7780930A01F4
:1049800080910B018F7780930B0180910A018064E5
:1049900080930A0180910B01806480930B0161E098
:1049A00070E080E090E00E9493308091090187FDE3
:1049B00008C08AE290E06BE270E044E050E00E94C0
:1049C00030018CE26EEF70E00E941E3180910A018E
:1049D0008F7D80930A0180912001877F8093200141
:1049E00080910B01806280930B0180910A018061AC
:1049F00080930A01809120018F7D80932001809116
:104A00000B018F7E80930B0161E070E080E090E00D
:104A10000E94933080912001877F809320018091B4
:104A2000090185FF08C08CE290E06DE270E041E092
:104A300050E00E9430018DE26EEF70E00E941E3166
:104A400080910A018F7D80930A0180912001877FE8
:104A50008093200180910B01806280930B018091F3
:104A60000A01806180930A01809120018F7D8093EB
:104A7000200180910B018F7E80930B0161E070E03B
:104A800080E090E00E94933080912001877F8093A6
:104A900020018091090185FF08C08CE290E06DE261
:104AA00070E041E050E00E94300180910A018F7D6A
:104AB00080930A0180912001877F8093200180915B
:104AC0000B01806280930B0180910A0180618093C9
:104AD0000A01809120018F7D8093200180910B013C
:104AE0008F7E80930B0161E070E080E090E00E9497
:104AF000933080912001877F80932001809109016C
:104B000085FF08C08CE290E06DE270E041E050E08B
:104B10000E94300180912001877F80932001809145
:104B20000A018F7D80930A0180910B01806280933E
:104B30000B01809120018F7D8093200180910A01DB
:104B4000806180930A0180910B018F7E80930B011D
:104B500061E070E080E090E00E9493308091090174
:104B600085FF08C08CE290E06DE270E041E050E02B
:104B70000E9430018CE26EEF70E00E941E31809145
:104B80002001877F8093200180910A018F7D80938F
:104B90000A0180910B01806280930B0180912001BA
:104BA0008F7D8093200180910A01806180930A01AA
:104BB00080910B018F7E80930B0161E070E080E0BB
:104BC00090E00E9493308091090185FF08C08CE23B
:104BD00090E06DE270E041E050E00E9430018DE233
:104BE0006EEF70E00E941E3180912001877F8093DC
:104BF000200180910A018F7D80930A0180910B0131
:104C0000806280930B01809120018F7D8093200131
:104C100080910A01806180930A0180910B018F7E4F
:104C200080930B0161E070E080E090E00E9493309F
:104C30008091090185FF08C08CE290E06DE270E090
:104C400041E050E00E9430018DE26EEF70E00E9482
:104C50001E3180910A018F7E80930A01809120018C
:104C60008F7D8093200180910B01806180930B01E7
:104C700080910A01806280930A0180912001877FE0
:104C80008093200180910B018F7D80930B0161E067
:104C900070E080E090E00E949330809120018F7D51
:104CA000809320018091090184FF08C08DE290E08B
:104CB0006CE270E042E050E00E9430018CE26EEF66
:104CC00070E00E941E3180910A018F7E80930A015C
:104CD000809120018F7D8093200180910B01806164
:104CE00080930B0180910A01806280930A01809178
:104CF0002001877F8093200180910B018F7D80931D
:104D00000B0161E070E080E090E00E9493308091C0
:104D100020018F7D809320018091090184FF08C0CC
:104D20008DE290E06CE270E042E050E00E943001E1
:104D300080910A018F7E80930A01809120018F7DEE
:104D40008093200180910B01806180930B01809101
:104D50000A01806280930A0180912001877F8093FD
:104D6000200180910B018F7D80930B0161E070E049
:104D700080E090E00E949330809120018F7D8093AD
:104D800020018091090184FF08C08DE290E06CE26F
:104D900070E042E050E00E943001809120018F7D60
:104DA0008093200180910A018F7E80930A01809177
:104DB0000B01806180930B0180912001877F80939C
:104DC000200180910A01806280930A0180910B0189
:104DD0008F7D80930B0161E070E080E090E00E94A5
:104DE00093308091090184FF08C08DE290E06CE26D
:104DF00070E042E050E00E9430018DE26EEF70E022
:104E00000E941E31809120018F7D8093200180912E
:104E10000A018F7E80930A0180910B01806180934B
:104E20000B0180912001877F8093200180910A01EE
:104E3000806280930A0180910B018F7D80930B012A
:104E400061E070E080E090E00E9493308091090181
:104E500084FF08C08DE290E06CE270E042E050E038
:104E60000E9430018CE26EEF70E00E941E31809152
:104E700020018F7D8093200180910A018F7E809395
:104E80000A0180910B01806180930B0180912001C8
:104E9000877F8093200180910A01806280930A01BC
:104EA00080910B018F7D80930B0161E070E080E0C9
:104EB00090E00E9493308091090184FF08C08DE248
:104EC00090E06CE270E042E050E00E9430018DE240
:104ED00061E070E00E941E3180910A018F7E809314
:104EE0000A01809120018F7D8093200180910B0128
:104EF0008F7E80930B0180910A01806280930A016A
:104F000080912001877F8093200180910B01806236
:104F100080930B0161E070E080E090E00E949330AC
:104F2000809120018F7D809320018091090184FD73
:104F300008C08DE290E06CE270E043E050E00E9437
:104F400030018CE261E070E00E941E3180910A0124
:104F50008F7E80930A01809120018F7D80932001B4
:104F600080910B018F7E80930B0180910A018062FA
:104F700080930A0180912001877F80932001809196
:104F80000B01806280930B0161E070E080E090E0B3
:104F90000E949330809120018F7D80932001809129
:104FA000090184FD08C08DE290E06CE270E043E00E
:104FB00050E00E94300180910A018F7E80930A01A7
:104FC000809120018F7D8093200180910B018F7E45
:104FD00080930B0180910A01806280930A01809185
:104FE0002001877F8093200180910B018062809354
:104FF0000B0161E070E080E090E00E9493308091CE
:1050000020018F7D809320018091090184FD08C0DB
:105010008DE290E06CE270E043E050E00E943001ED
:10502000809120018F7D8093200180910A018F7EE5
:1050300080930A0180910B018F7E80930B018091F8
:105040002001877F8093200180910A0180628093F4
:105050000A0180910B01806280930B0161E070E096
:1050600080E090E00E9493308091090184FD08C0A7
:105070008DE290E06CE270E043E050E00E9430018D
:105080008DE261E070E00E941E31809120018F7DF1
:105090008093200180910A018F7E80930A01809184
:1050A0000B018F7E80930B0180912001877F80937D
:1050B000200180910A01806280930A0180910B0196
:1050C000806280930B0161E070E080E090E00E94DC
:1050D00093308091090184FD08C08DE290E06CE27C
:1050E00070E043E050E00E9430018CE261E070E04B
:1050F0000E941E31809120018F7D8093200180913C
:105100000A018F7E80930A0180910B018F7E80932C
:105110000B0180912001877F8093200180910A01FB
:10512000806280930A0180910B01806280930B0161
:1051300061E070E080E090E00E949330809109018E
:1051400084FD08C08DE290E06CE270E043E050E046
:105150000E9430018CE261E070E00E941E3180917B
:105160000A018F7D80930A0180912001877F8093BF
:10517000200180910B018F7D80930B0180910A01AA
:10518000806180930A01809120018F7D80932001AE
:1051900080910B01806180930B0161E070E080E001
:1051A00090E00E94933080912001877F80932001BE
:1051B0008091090185FD08C08CE290E06DE270E00D
:1051C00044E050E00E9430018DE261E070E00E9416
:1051D0001E3180910A018F7D80930A018091200108
:1051E000877F8093200180910B018F7D80930B013D
:1051F00080910A01806180930A01809120018F7D56
:105200008093200180910B01806180930B0161E00C
:1052100070E080E090E00E94933080912001877FD1
:10522000809320018091090185FD08C08CE290E007
:105230006DE270E044E050E00E94300180910A018C
:105240008F7D80930A0180912001877F80932001C8
:1052500080910B018F7D80930B0180910A01806109
:1052600080930A01809120018F7D8093200180919D
:105270000B01806180930B0161E070E080E090E0C1
:105280000E94933080912001877F8093200180913C
:10529000090185FD08C08CE290E06DE270E044E019
:1052A00050E00E94300180912001877F809320018F
:1052B00080910A018F7D80930A0180910B018F7D7F
:1052C00080930B01809120018F7D8093200180913C
:1052D0000A01806180930A0180910B0180618093B3
:1052E0000B0161E070E080E090E00E9493308091DB
:1052F000090185FD08C08CE290E06DE270E044E0B9
:1053000050E00E9430018CE261E070E00E941E31AA
:1053100080912001877F8093200180910A018F7DF9
:1053200080930A0180910B018F7D80930B01809106
:1053300020018F7D8093200180910A0180618093FC
:105340000A0180910B01806180930B0161E070E0A4
:1053500080E090E00E9493308091090185FD08C0B3
:105360008CE290E06DE270E044E050E00E94300199
:105370008DE261E070E00E941E3180912001877F04
:105380008093200180910A018F7D80930A01809192
:105390000B018F7D80930B01809120018F7D809385
:1053A000200180910A01806180930A0180910B01A4
:1053B000806180930B0161E070E080E090E00E94EA
:1053C00093308091090185FD08C08CE290E06DE288
:1053D00070E044E050E00E9430018EE26EEF70E039
:1053E0000E941E3180910A01877F80930A0180917B
:1053F00020018F778093200180910B01886080933A
:105400000B0180910A01846080930A0180910B0155
:105410008B7F80930B0161E070E080E090E00E9460
:105420009330809120018F77809320018091090132
:1054300083FF08C08EE290E06FE270E041E050E050
:105440000E943001809120018F778093200180910C
:105450000A01877F80930A0180910B018860809305
:105460000B0180910A01846080930A0180910B01F5
:105470008B7F80930B0161E070E080E090E00E9400
:1054800093308091090183FF08C08EE290E06FE2C3
:1054900070E041E050E00E9430018EE26EEF70E07B
:1054A0000E941E31809120018F778093200180918E
:1054B0000A01877F80930A0180910B0188608093A5
:1054C0000B0180910A01846080930A0180910B0195
:1054D0008B7F80930B0161E070E080E090E00E94A0
:1054E00093308091090183FF08C08EE290E06FE263
:1054F00070E041E050E00E943001809120018F7700
:105500008093200180910A01877F80930A01809116
:105510000B01886080930B0180910A018460809365
:105520000A0180910B018B7F80930B0161E070E099
:1055300080E090E00E9493308091090183FF08C0D1
:105540008EE290E06FE270E041E050E00E943001B6
:1055500080910A018B7F80930A0180910B01846006
:1055600080930B0180910A01886080930A018091E9
:1055700020018F778093200180910B01877F80939A
:105580000B0161E070E080E090E00E949330809138
:10559000090182FF08C08FE290E06EE270E042E015
:1055A00050E00E9430018EE26EEF70E00E941E31EA
:1055B00080910A018B7F80930A0180910B018460A6
:1055C00080930B0180910A01886080930A01809189
:1055D00020018F778093200180910B01877F80933A
:1055E0000B0161E070E080E090E00E9493308091D8
:1055F000090182FF08C08FE290E06EE270E042E0B5
:1056000050E00E94300180910A018B7F80930A0153
:1056100080910B01846080930B0180910A01886066
:1056200080930A01809120018F77809320018091DF
:105630000B01877F80930B0161E070E080E090E0D8
:105640000E9493308091090182FF08C08FE290E0B0
:105650006EE270E042E050E00E9430018EE26EEFB8
:1056600070E00E941E3180910A018B7F80930A01B5
:1056700080910B01846080930B01809120018F77D2
:105680008093200180910A01886080930A018091B3
:105690000B01877F80930B0161E070E080E090E078
:1056A0000E9493308091090182FF08C08FE290E050
:1056B0006EE270E042E050E00E94300180910A0109
:1056C0008B7F80930A0180910B018B7F80930B016C
:1056D00080910A01886080930A01809120018F7770
:1056E0008093200180910B01886080930B0161E021
:1056F00070E080E090E00E9493308091090182FD8B
:1057000008C08FE290E06EE270E043E050E00E945B
:1057100030018EE261E070E00E941E3180910A014A
:105720008B7F80930A0180910B018B7F80930B010B
:1057300080910A01886080930A01809120018F770F
:105740008093200180910B01886080930B0161E0C0
:1057500070E080E090E00E9493308091090182FD2A
:1057600008C08FE290E06EE270E043E050E00E94FB
:10577000300180910A018B7F80930A0180910B0197
:105780008B7F80930B0180910A01886080930A01CE
:10579000809120018F778093200180910B01886098
:1057A00080930B0161E070E080E090E00E94933014
:1057B0008091090182FD08C08FE290E06EE270E006
:1057C00043E050E00E9430018EE261E070E00E9410
:1057D0001E3180910A018B7F80930A0180910B0119
:1057E0008B7F80930B01809120018F778093200124
:1057F00080910A01886080930A0180910B01886082
:1058000080930B0161E070E080E090E00E949330B3
:105810008091090182FD08C08FE290E06EE270E0A5
:1058200043E050E00E9430018EE261E070E00E94AF
:105830001E3180910A01877F80930A0180912001A7
:105840008F778093200180910B01877F80930B01DC
:1058500080910A01846080930A0180910B01846029
:1058600080930B0161E070E080E090E00E94933053
:10587000809120018F77809320018091090183FD21
:1058800008C08EE290E06FE270E044E050E00E94D9
:105890003001809120018F778093200180910A014F
:1058A000877F80930A0180910B01877F80930B0192
:1058B00080910A01846080930A0180910B018460C9
:1058C00080930B0161E070E080E090E00E949330F3
:1058D0008091090183FD08C08EE290E06FE270E0E4
:1058E00044E050E00E9430018EE261E070E00E94EE
:1058F0001E31809120018F778093200180910A01D1
:10590000877F80930A0180910B01877F80930B0131
:1059100080910A01846080930A0180910B01846068
:1059200080930B0161E070E080E090E00E94933092
:105930008091090183FD08C08EE290E06FE270E083
:1059400044E050E00E943001809120018F778093E5
:10595000200180910A01877F80930A0180910B01C9
:10596000877F80930B0180910A01846080930A01F4
:1059700080910B01846080930B0161E070E080E016
:1059800090E00E9493308091090183FD08C08EE26F
:1059900090E06FE270E044E050E00E9430018091BE
:1059A0000A018D7F80930A0180910B0182608093B0
:1059B0000B0180910A01816080930A0180910B01A3
:1059C0008E7F80930B0161E070E080E090E00E94A8
:1059D00093308091090181FF08C080E390E061E38A
:1059E00070E041E050E00E94300180910A018D7F1B
:1059F00080930A0180910B01826080930B0180915A
:105A00000A01816080930A0180910B018E7F80934F
:105A10000B0161E070E080E090E00E9493308091A3
:105A2000090181FF08C080E390E061E370E041E09C
:105A300050E00E94300180910A018E7F80930A011C
:105A400080910B01816080930B0180910A0182603B
:105A500080930A0180910B018D7F80930B0161E09F
:105A600070E080E090E00E9493308091090180FF17
:105A700008C081E390E060E370E042E050E00E9403
:105A8000300180910A018E7F80930A0180910B0181
:105A9000816080930B0180910A01826080930A01EA
:105AA00080910B018D7F80930B0161E070E080E0BD
:105AB00090E00E9493308091090180FF08C081E34B
:105AC00090E060E370E042E050E00E94300180919D
:105AD0000A018E7F80930A0180910B018E7F809353
